{
  "_format": "hh-sol-artifact-1",
  "contractName": "Tokenization",
  "sourceName": "contracts/Tokenization.sol",
  "abi": [
    {
      "anonymous": false,
      "inputs": [
        {
          "indexed": false,
          "internalType": "uint256",
          "name": "tokenId",
          "type": "uint256"
        },
        {
          "indexed": false,
          "internalType": "string",
          "name": "originalDataHash",
          "type": "string"
        },
        {
          "indexed": false,
          "internalType": "address",
          "name": "createdBy",
          "type": "address"
        },
        {
          "indexed": false,
          "internalType": "uint256",
          "name": "timestamp",
          "type": "uint256"
        }
      ],
      "name": "TokenCreated",
      "type": "event"
    },
    {
      "inputs": [],
      "name": "getLastTokenId",
      "outputs": [
        {
          "internalType": "uint256",
          "name": "",
          "type": "uint256"
        }
      ],
      "stateMutability": "view",
      "type": "function"
    },
    {
      "inputs": [
        {
          "internalType": "uint256",
          "name": "tokenId",
          "type": "uint256"
        }
      ],
      "name": "getTokenData",
      "outputs": [
        {
          "internalType": "string",
          "name": "",
          "type": "string"
        }
      ],
      "stateMutability": "view",
      "type": "function"
    },
    {
      "inputs": [
        {
          "internalType": "address",
          "name": "user",
          "type": "address"
        }
      ],
      "name": "getUserTokens",
      "outputs": [
        {
          "internalType": "uint256[]",
          "name": "",
          "type": "uint256[]"
        }
      ],
      "stateMutability": "view",
      "type": "function"
    },
    {
      "inputs": [],
      "name": "tokenCounter",
      "outputs": [
        {
          "internalType": "uint256",
          "name": "",
          "type": "uint256"
        }
      ],
      "stateMutability": "view",
      "type": "function"
    },
    {
      "inputs": [
        {
          "internalType": "string",
          "name": "originalDataHash",
          "type": "string"
        }
      ],
      "name": "tokenizeData",
      "outputs": [
        {
          "internalType": "uint256",
          "name": "",
          "type": "uint256"
        }
      ],
      "stateMutability": "nonpayable",
      "type": "function"
    }
  ],
  "bytecode": "0x6080604052348015600f57600080fd5b50610ce18061001f6000396000f3fe608060405234801561001057600080fd5b50600436106100575760003560e01c8063519dc8d21461005c57806383c4c00d1461008c5780639e21afe7146100aa578063b09afec1146100da578063d082e3811461010a575b600080fd5b610076600480360381019061007191906104c5565b610128565b60405161008391906105ba565b60405180910390f35b6100946101bf565b6040516100a191906105eb565b60405180910390f35b6100c460048036038101906100bf919061074c565b6101c9565b6040516100d191906105eb565b60405180910390f35b6100f460048036038101906100ef91906107c1565b610355565b604051610101919061086d565b60405180910390f35b61011261044d565b60405161011f91906105eb565b60405180910390f35b6060600160008373ffffffffffffffffffffffffffffffffffffffff1673ffffffffffffffffffffffffffffffffffffffff1681526020019081526020016000208054806020026020016040519081016040528092919081815260200182805480156101b357602002820191906000526020600020905b81548152602001906001019080831161019f575b50505050509050919050565b6000600254905090565b6000600260008154809291906101de906108be565b9190505550604051806080016040528060025481526020018381526020014281526020013373ffffffffffffffffffffffffffffffffffffffff16815250600080600254815260200190815260200160002060008201518160000155602082015181600101908161024f9190610b12565b506040820151816002015560608201518160030160006101000a81548173ffffffffffffffffffffffffffffffffffffffff021916908373ffffffffffffffffffffffffffffffffffffffff160217905550905050600160003373ffffffffffffffffffffffffffffffffffffffff1673ffffffffffffffffffffffffffffffffffffffff16815260200190815260200160002060025490806001815401808255809150506001900390600052602060002001600090919091909150557fcf7d8e11cbb61550866f5c1fc7ddee3bff196aec1684cb1b2caf39c5f56658c16002548333426040516103439493929190610bf3565b60405180910390a16002549050919050565b606060008211801561036957506002548211155b6103a8576040517f08c379a000000000000000000000000000000000000000000000000000000000815260040161039f90610c8b565b60405180910390fd5b60008083815260200190815260200160002060010180546103c890610935565b80601f01602080910402602001604051908101604052809291908181526020018280546103f490610935565b80156104415780601f1061041657610100808354040283529160200191610441565b820191906000526020600020905b81548152906001019060200180831161042457829003601f168201915b50505050509050919050565b60025481565b6000604051905090565b600080fd5b600080fd5b600073ffffffffffffffffffffffffffffffffffffffff82169050919050565b600061049282610467565b9050919050565b6104a281610487565b81146104ad57600080fd5b50565b6000813590506104bf81610499565b92915050565b6000602082840312156104db576104da61045d565b5b60006104e9848285016104b0565b91505092915050565b600081519050919050565b600082825260208201905092915050565b6000819050602082019050919050565b6000819050919050565b6105318161051e565b82525050565b60006105438383610528565b60208301905092915050565b6000602082019050919050565b6000610567826104f2565b61057181856104fd565b935061057c8361050e565b8060005b838110156105ad5781516105948882610537565b975061059f8361054f565b925050600181019050610580565b5085935050505092915050565b600060208201905081810360008301526105d4818461055c565b905092915050565b6105e58161051e565b82525050565b600060208201905061060060008301846105dc565b92915050565b600080fd5b600080fd5b6000601f19601f8301169050919050565b7f4e487b7100000000000000000000000000000000000000000000000000000000600052604160045260246000fd5b61065982610610565b810181811067ffffffffffffffff8211171561067857610677610621565b5b80604052505050565b600061068b610453565b90506106978282610650565b919050565b600067ffffffffffffffff8211156106b7576106b6610621565b5b6106c082610610565b9050602081019050919050565b82818337600083830152505050565b60006106ef6106ea8461069c565b610681565b90508281526020810184848401111561070b5761070a61060b565b5b6107168482856106cd565b509392505050565b600082601f83011261073357610732610606565b5b81356107438482602086016106dc565b91505092915050565b6000602082840312156107625761076161045d565b5b600082013567ffffffffffffffff8111156107805761077f610462565b5b61078c8482850161071e565b91505092915050565b61079e8161051e565b81146107a957600080fd5b50565b6000813590506107bb81610795565b92915050565b6000602082840312156107d7576107d661045d565b5b60006107e5848285016107ac565b91505092915050565b600081519050919050565b600082825260208201905092915050565b60005b8381101561082857808201518184015260208101905061080d565b60008484015250505050565b600061083f826107ee565b61084981856107f9565b935061085981856020860161080a565b61086281610610565b840191505092915050565b600060208201905081810360008301526108878184610834565b905092915050565b7f4e487b7100000000000000000000000000000000000000000000000000000000600052601160045260246000fd5b60006108c98261051e565b91507fffffffffffffffffffffffffffffffffffffffffffffffffffffffffffffffff82036108fb576108fa61088f565b5b600182019050919050565b7f4e487b7100000000000000000000000000000000000000000000000000000000600052602260045260246000fd5b6000600282049050600182168061094d57607f821691505b6020821081036109605761095f610906565b5b50919050565b60008190508160005260206000209050919050565b60006020601f8301049050919050565b600082821b905092915050565b6000600883026109c87fffffffffffffffffffffffffffffffffffffffffffffffffffffffffffffffff8261098b565b6109d2868361098b565b95508019841693508086168417925050509392505050565b6000819050919050565b6000610a0f610a0a610a058461051e565b6109ea565b61051e565b9050919050565b6000819050919050565b610a29836109f4565b610a3d610a3582610a16565b848454610998565b825550505050565b600090565b610a52610a45565b610a5d818484610a20565b505050565b5b81811015610a8157610a76600082610a4a565b600181019050610a63565b5050565b601f821115610ac657610a9781610966565b610aa08461097b565b81016020851015610aaf578190505b610ac3610abb8561097b565b830182610a62565b50505b505050565b600082821c905092915050565b6000610ae960001984600802610acb565b1980831691505092915050565b6000610b028383610ad8565b9150826002028217905092915050565b610b1b826107ee565b67ffffffffffffffff811115610b3457610b33610621565b5b610b3e8254610935565b610b49828285610a85565b600060209050601f831160018114610b7c5760008415610b6a578287015190505b610b748582610af6565b865550610bdc565b601f198416610b8a86610966565b60005b82811015610bb257848901518255600182019150602085019450602081019050610b8d565b86831015610bcf5784890151610bcb601f891682610ad8565b8355505b6001600288020188555050505b505050505050565b610bed81610487565b82525050565b6000608082019050610c0860008301876105dc565b8181036020830152610c1a8186610834565b9050610c296040830185610be4565b610c3660608301846105dc565b95945050505050565b7f496e76616c696420746f6b656e20494400000000000000000000000000000000600082015250565b6000610c756010836107f9565b9150610c8082610c3f565b602082019050919050565b60006020820190508181036000830152610ca481610c68565b905091905056fea2646970667358221220c798ac9e353d74e6aacc837ba8ecbf9172f351d7be956722cf043f5601b1297664736f6c634300081c0033",
  "linkReferences": {},
  "deployedLinkReferences": {}
}